:020000040800F2
:20000000F0FF0010ED8607087DF40608651103088D8707088D8707088D87070800000000F6
:2000200000000000000000000000000081F4060885F406080000000089F4060811B102085F
:200040008D8707088D8707088D8707088D8707088D8707088D8707089D9A0208C19A020828
:20006000F99A0208319B0208699B020889C9000899C90008A9C90008B9C90008CDC9000899
:20008000E1C90008F5C900088D8707088D8707088D8707088D8707088D870708A19B0208F3
:2000A000490D0308A90C0308590D0308990C0308D10C0308E10C0308F10C0308D59D00089C
:2000C000F9A20008DD9D0008FDA200088D8707088D87070861AC020819AD0208D1AD02089F
:2000E000D99B02088D87070835FB0608690D0308210D0308790D0308110D030809CA0008D2
:200100008D870708FDF30008010D03088D87070889AE020841AF02088D8707088D87070807
:200120001DCA000831CA000845CA000859CA00086DCA00088D8707088D8707088D870708E3
:200140008D8707088D8707088D8707088DF4060881CA000895CA0008A9CA0008F9AF0208C0
:20016000E59D000801A300088D8707088D8707088D8707088D8707088D8707088D87070877
:200180008D8707088D870708FFFFFFFFFFFFFFFFFFFFFFFFFFFFFFFFFFFFFFFFFFFFFFFF31
:2001A000FFFFFFFFFFFFFFFFFFFFFFFFFFFFFFFFFFFFFFFFFFFFFFFFFFFFFFFFFFFFFFFF5F
:2001C000FFFFFFFFFFFFFFFFFFFFFFFFFFFFFFFFFFFFFFFFFFFFFFFFFFFFFFFFFFFFFFFF3F
:2001E000FFFFFFFFFFFFFFFFFFFFFFFFFFFFFFFFFFFFFFFFFFFFFFFFFFFFFFFFFFFFFFFF1F
:20020000FFFFFFFFFFFFFFFFFFFFFFFFFFFFFFFFFFFFFFFFFFFFFFFFFFFFFFFFFFFFFFFFFE
:020000040800F2
:2028000000C00F0800001008FFFFFFFFFFFFFFFFFFFFFFFFFFFFFFFFFFFFFFFFFFFFFFFFE1
:20282000FFFFFFFFFFFFFFFFFFFFFFFFFFFFFFFFFFFFFFFFFFFFFFFFFFFFFFFFFFFFFFFFB8
:20284000FFFFFFFFFFFFFFFFFFFFFFFFFFFFFFFFFFFFFFFFFFFFFFFFFFFFFFFFFFFFFFFF98
:20286000FFFFFFFFFFFFFFFFFFFFFFFFFFFFFFFFFFFFFFFFFFFFFFFFFFFFFFFFFFFFFFFF78
:20288000FFFFFFFFFFFFFFFFFFFFFFFFFFFFFFFFFFFFFFFFFFFFFFFFFFFFFFFFFFFFFFFF58
:020000040800F2
:20400000AFBE2A000A00090030000000E100000000000000000000000000020000029E073C
:204020007D000000F401000105015A000B0014020000000000FF004500160200002802FF07
:204040003802FF2002002102001301011201002601001801FF1901001A0100000000000046
:20406000000000000000000000000000000000000000000000000000000000002C0006000E
:204080000100E00106000001010020211312381800000002000001020304050607007E04E0
:2040A0002E04D007E8030C001A000D020100000000000000000000000000000000000000D6
:2040C000000010000301010000000000000000000000160012000300000000010000055347
:2040E000343035000008020043000B020200000000000000000000000000000000000000CB
:2041000000000000000000000000000000000000000000000000000000000000000000009F
:20412000000000000000000100000042001A02000000000000000000000000000000000020
:20414000000000000000000000000000000000000042454648004245544146505646343098
:2041600035000000000000000000000100860004000000000000000000000000000000007F
:2041800000000000000000000000000000000000000000000000000000000000000000001F
:2041A0000000000000000000000000000000000000000000000000000000000000000000FF
:2041C0000000000000000000000000000000000000000000000000000000000000000000DF
:2041E00000000000000000000000000000000000000000160019020000000000000000008E
:20420000000000000000000000150008020100151617FFFF2D2E2F00FF3A3B3CFFFF1200F4
:20422000110000000100123456789ABC0000000043000302010000000000000000000000B9
:2042400000000000000000000000000000000000000000000000000000000000000000005E
:20426000000000000000000000000000000000000000011000010200000000000002000028
:204280000000000A000C020000011F0300A000FD070100C000010A39094E00CE00EA002DFE
:2042A0000E0E0E160AEE0DEA00200AEA00EA00EA00EA00EA00EA00EA00EA00EA00F539EA53
:2042C00000EA00EA00EA00EA00EA00EA00EA00EA00EA00EA00EA00EA008100EA00EA00EAA7
:2042E00000EA00E100EA00EA00EA00EA00EA00C009EA00EA00EA00EA00EA00EA00EA00EA48
:2043000000A009EA002300EA00EA00CD00EA00EA00EA00EA00A000EA00EA00EA00EA00EA6C
:2043200000EA00EA00EA00EA00EA00EA000A001300010008004510080007020000023C092E
:2043400000020200000300007A00F5010C00980864001401000A010A0000FF1F0000142852
:2043600000002C3700000000FFFFFFFF460001020000000000000000000000000000000095
:2043800000000000000000000000000000000000000000000000000000000000000000001D
:2043A000000000005000C4FF040000FFFFFFFF0100000005180B0C0000000001C800413576
:2043C00014001200F6010200FFDF7F0001000000000000000A0012020100FFFFFFFF0E0037
:2043E000110200000000000001010101160034000000DC0532000000000000000000000049
:2044000001040C00F80103000201F40114001200020000000000000000000000A6FF0000CA
:204420001A00FE01000001320030013100000200000000000000FF01FF000B003900000089
:2044400000000000001800060201000000000020030000000020030000000020030C00F7CF
:204460000100002401000000000F00FC0100000000000000000000000700FB0100002814CB
:20448000001A0000007E05EA05B4053200E803D00700000B001400000003010023002A0073
:2044A000FD01000019002A1000360000000000001A002B114237000000000000000039006D
:2044C00000380000000000000C001D0200000000000000003E001800040000010302040510
:2044E000060702010000000001006400DC051A046C070019750343080E00000100000000EA
:204500001E1E1E7D01010000000000000000000000000A00F9010000250000000A00FA0194
:2045200000002C0200000B00FF01020002272C01010E000500030000000000010300000AC5
:204540000013020000000001352A001F0005000000000000010001000500000102030000B5
:204560000000000000000000000000000000000080170022000B000300AE014F0159012CEF
:204580000164010100000001000A019A01001E0A000002000012002B0200000000000000A4
:2045A000000000000000FF0C001E0200000000000000007600150000000000000000000045
:2045C0000000000000000000000000000000000000000000000000000000000000000000DB
:2045E0000000000000000000000000000000000000000000000000000000000000000000BB
:2046000000000000000000000000000000000000000000000000000000000000000000009A
:2046200000000000000000000066002A00000000000000E803D007DC0564FF00000000E8FC
:2046400003D007DC0564FF00000000E803D007DC0564FF00000000E803D007DC0564FF0030
:20466000000000E803D007DC0564FF00000000E803D007DC0564FF00000000E803D007DC90
:204680000564FF00000000E803D007DC0564FFF600210200000020280010202800000000F3
:2046A0000000000000000000000000000000000000000000000000000000000000000000FA
:2046C0000000000000000000000000000000000000000000000000000000000000000000DA
:2046E0000000000000000000000000000000000000000000000000000000000000000000BA
:20470000000000000000000000000000000000000000000000000000000000FFFF0000009B
:20472000FF1E0000FF3C0000FF5A0000FF780000FF960000FFB40000FFD20000FFF0000049
:20474000FF0E0100FF2C0100FF4A0100FF0000000000000000010B020D0A03050B030D0A84
:20476000030A0B040D0A03080B040D0A03070B030D0A03000000000000060A01000002038D
:20478000060000000316002C000000E803D007E803D007E803D007E803D00732012500026C
:2047A0000000000000000000000000000000000000000000000000000000000000000000F9
:2047C0000000000000000000000000000000000000000000000000000000000000000000D9
:2047E0000000000000000000000000000000000000000000000000000000000000000000B9
:20480000000000000000000000000000000000000000000000000000000000000000000098
:20482000000000000000000000000000000000000000000000000000000000000000000078
:20484000000000000000000000000000000000000000000000000000000000000000000058
:20486000000000000000000000000000000000000000000000000000000000000000000038
:20488000000000000000000000000000000000000000000000000000000000000000000018
:2048A0000000000000000000000000000000000000000000000000000000000000000000F8
:2048C000000000000000000000000000002A002B000000001E001E001E0005011E011E01E5
:2048E0001E011E011E011E011E011E011E011E011E011E011E011E0A0027000000200300F1
:204900000086000C0005003200030707070000004343430064CE07CE07CE0700000000000A
:20492000000000000000003200030707070000004343430064CE07CE07CE07000000000081
:20494000000000000000003200030707070000004343430064CE07CE07CE07000000000061
:20496000000000000000003200030707070000004343430064CE07CE07CE07000000000041
:20498000000000000000007E002900020000002030000001010010000002011020000006D3
:2049A00002223000000B04203000001B031E300000000000000000000000000000000000D8
:2049C0000000000000000000000000000000000000000000000000000000000000000000D7
:2049E0000000000000000000000000000000000000000000000000000000000000000000B7
:204A00000000000000120001000200E80364000F0A02010A001E001600230002001900009A
:204A200000FEFFCEFFE2FF0100000000001C0028000300000101020000000000000000007F
:204A40000000000000000000005E020E00050064004300000000002832250078002A342ABD
:204A6000007D0028320000780032324B0000002800000000000055F401900101374B005062
:204A80000000000000320090015E01F40100000A64C8009001870000050F00010F01140078
:204AA0004B3200005A140B000043008700001400280100C8001E2200251464000000000054
:204AC00000000000000000323232960001190A0F5A05000002646446645A4664015A6405DC
:204AE000640142460564004B00000000002D50280078002F542E007D002D500000780032A3
:204B0000324B0000002800000000000055F401900101374B00500000000000320090015E21
:204B200001F40100000A64C8009001960000050F00010F0114004B3200005A140B00004BA8
:204B4000009600001400280100C8001E220025146400000000000000000000000032323247
:204B600096000019070F5A050000026464646464646401646405640141460564004B0000E5
:204B80000000002D50280078002F542E007D002D500000780032324B0000002800000000FE
:204BA000000055F401900101374B00500000000000320090015E01F40100000A64C800906A
:204BC00001960000050F00010F0114004B3200005A140B00004B009600001400280100C829
:204BE000001E220025146400000000000000000000000032323296000019070F5A0500001E
:204C0000026464646464646401646405640141460564004B00000000002D50280078002F1C
:204C2000542E007D002D500000780032324B0000002800000000000055F401900101374B4B
:204C400000500000000000320090015E01F40100000A64C8009001960000050F00010F016B
:204C600014004B3200005A140B00004B009600001400280100C8001E220025146400000067
:204C800000000000000000000032323296000019070F5A0500000264646464646464016437
:204CA000640564014146050F001E00010001050100000000000076000D00010001000000E0
:204CC000140504050000000000000000000504050000000000000000010504050000000095
:204CE000000000000205040500000000000000000305040500000000400000000405040541
:204D000000000000000000000505040500000000000000001E050405000000000000000054
:204D20001F0504050000000064005200220122020000000000000000000000000000000049
:204D4000000000000000000000000000000000000000000000000000000000000000000053
:204D6000000000000000000000000000000000000000000000000000000000000000000033
:204D8000000000000000000000000000000000000000000000000000000000000000000013
:204DA000000000000000000000000000000000000000000042414E44312020200042414E7C
:204DC00044322020200042414E44332020200042414E44342020200042414E443520202002
:204DE0000042414E44362020200042414E44372020200042414E44382020200031323334E5
:204E0000353637383100320033003400350036003700380000000000000000000000000014
:204E200000000000000000000000000000004C5630004C5631004C5632004C5633004C5682
:204E400034004C5635004C5636004C56370016001F020000FFFFFFFFFFFFFFFFFFFFFFFF6B
:204E6000FFFFFFFF16001B02000006000000E803000000000000000000000A0028020000DE
:204E8000000000000A00270200000000000022001C02000000020114000034000000000054
:204EA0008C0A01020100000000010000000000000C003800040000642C0164002E003700B5
:204EC000040046001E001400EE020F0F14144C04A406FB040808280C1E00020001040000BE
:204EE000EE0296000A0096144B000B0019000000000028010008000E020000000028002F71
:204F00000002005061766F205069636F00000000000000000000000000000000000000004E
:204F200000000000000A0001010000000000000A0000010000FE01D4FE0900020100006E0F
:204F40000A01460029020000000000000000000000000000000000000000000000000000D5
:204F6000000000000000000000000000000000000000000000000000000000000000000031
:204F800000000000000000000E002600030002032300000000000E002002050003643200E4
:204FA000F40196000E002A02010064005802F401000012001B000200002600020301F40128
:204FC000320001640C0016000200C4090000B40208001000010000051A0023020300000033
:204FE00000000000000000000000FF000000000000000A0005020000000000000A002C0269
:2050000000001900190007002D0200000007000300000000080004020100391807000F02A6
:20502000000000100000020100000000000000000000000700100200000007000902000032
:205040002800005309000000FFFFFFFFFFFFFFFFFFFFFFFFFFFFFFFFFFFFFFFFFFFFFFFFE4
:20506000FFFFFFFFFFFFFFFFFFFFFFFFFFFFFFFFFFFFFFFFFFFFFFFFFFFFFFFFFFFFFFFF50
:20508000FFFFFFFFFFFFFFFFFFFFFFFFFFFFFFFFFFFFFFFFFFFFFFFFFFFFFFFFFFFFFFFF30
:2050A000FFFFFFFFFFFFFFFFFFFFFFFFFFFFFFFFFFFFFFFFFFFFFFFFFFFFFFFFFFFFFFFF10
:2050C000FFFFFFFFFFFFFFFFFFFFFFFFFFFFFFFFFFFFFFFFFFFFFFFFFFFFFFFFFFFFFFFFF0
:020000040800F2
:020000040800F2
:2080000082B01E4B002201920193019B1C4A04330193019B1968936803F00C03042B06D090
:20802000082B08D0174B184A1A6002B07047154B196002B070475368506813F4800F00F053
:208040003F00536812D1C3F388130F49B1FBF0F101FB03F30A4A0B495268C2F3014201328E
:208060005200B3FBF2F30B6002B07047C3F38813B1FBF0F101FB03F3ECE700BF502800402D
:2080800000380240F81D00200024F400074BD0F8E4105B68D0F8F0205B1A9A42B8BFC0F8F0
:2080A000F030012380F81C3100207047001000E0B84B00EB800103EBC10170B54A68526840
:2080C000B2F814E01EF0010F4FEA800C6ED15FFA8EF4A60742D5BFF35F8F91F82040012C8B
:2080E000E5B200F0D180118BBFF35F8F0CEB000103EBC10191F82040022C00F0E7800CEB5F
:20810000000103EBC10191F82040032C07D191F8221021B193F87D10002940F0E780918840
:2081200089B241F48061918093F97C100CEB000E03EBCE0E9EF820E00EF1010E8E450CD1A2
:20814000002183F87D1093F87E10002940F0B780604403EBC00300225A7770BD65075DD43B
:2081600014F0400400F0CB80148A93F97C508E6AE4B274555FFA85FE0EF1010464B291F8B0
:20818000206083F87C40E51CAE42214600F025810CEB000503EBC50595F82050AC42C5D105
:2081A0000EF1020149B283F87C10BFE7B2F800E02EF4006E4FEA0E4E4FEA1E4EA2F800E047
:2081C0001488A4B244F48064148091F82240002583F87C50002C48D093F87D40002C41D0DD
:2081E000012183F87D100CEB000103EBC10191F82010022904D1118889B241F400611180F9
:208200000CEB000103EBC101897F41F001011182604403EBC00393F8203070BD91F82240A0
:20822000012583F87E50002C70D093F87D40002C71D10CEB000103EBC10191F82110002922
:2082400000F0AA80118889B241F40071118093F87C1001314CB283F87C401188CE05FCD43F
:20826000214663E7C97FFF29BAD00CEB000103EBC1018C7F04F0FE041482CA7FFF2AC7D00B
:20828000FF2283F87C20C3E791F8221000293FF42AAF93F87D1000293FF425AF118821F416
:2082A00080610904090C1180BFF35F8F118B118883F87E5089B241F4007111802FE791886B
:2082C00021F440710904090C918041E791F8221000293FF414AF93F87D1000293FF40FAF71
:2082E000118821F480610904090C1180918821F480610904090C918093F97C1016E71FFACC
:208300008EF52D062DD493F97C100FE793F87D1000298ED096E791F82040022C148846D9AA
:2083200024F480642404240C1480158A8E6A93F97C40EDB235558E6A118889B241F40071DB
:208340001180E4B2158A611C49B2EDB275549188023489B264B241F4806183F87C40918079
:208360007BE793F97C506E1C3ED04C6A665D16826C1C91F8205064B2A54283F87C4021467E
:208380007FF4D4AE948824F480642404240C9480CCE600BFF81D0020118893F97C4089B2A2
:2083A00041F480711180012183F87D1055E7A4B244F400741480158A8E6A93F97C40EDB28C
:2083C0003555E4B28E6A158A611C49B20334EDB264B2755483F87C403FE7958825F4806541
:2083E0002D042D0C9580D3E683F87C40CC7F148291F8224024B991F8201000297FF408AF59
:20840000918821F480610904090C918000E700BF30B5EAB18E464FEA014C034600F1C0059B
:20842000002419689A6841EA0C0142EA0E029A60C3E900140C33AB42F3D1D0F8C030C0F807
:20844000C44043EA0E03C0F8C030C0F8C84030BD4FEA014E8C46E0E7836930B41C6999680E
:208460002268096822F0010222608A899C8992B222EA04028A81027D00681F2A06D9446816
:20848000203A08219140214216D0FEE70468082191402142F9D1202101FA02F28260224A49
:2084A00012783AB11A7E012A0BD1D3F8F8200132C3F8F82030BC7047202101FA02F2C260CA
:2084C000EDE7D3F8F4200132C3F8F420EFF31181502282F3128858685C6C026822EA0402EE
:2084E0009C6C2243C9B2026081F31188D3E90C401A6999681D6C096814605061D3E90E4070
:20850000546090600024B3F8A800D5604C62C86210680124204310601C768A899B891343A4
:208520009BB230BC8B81704704000010F0B5444C04EB401C9CF8202002B9F0BD414B4FF0A4
:208540008C0E0EFB003E93F8E06493F8E1249EF882708CF8067096424FF0000C4FEA4015A8
:208560008EF882C00ED002EB420C03EBCC0C57009CF8E4C40CF1FF3EBEF1010F54D9BCF1EE
:20858000030F4BD060198180EFF31182902383F312888379818843EA41030021D2B29BB294
:2085A000817182F311881A09217882EA13225A40C9B1C4698168D4F8A040D2431B019BB20A
:2085C00002F00F0201208840134304F1C0015A0013F4004F93B202D16268024362600C34CA
:2085E0008C42F4D1F0BDC1698068D1F8A0401B0100F110019BB202F00F02012088401343D3
:2086000004F1C0015A0013F4004F93B202D16268024362600C34A142F4D1F0BD02F1010C76
:208620000CF0030CB445ADD03A4403EBC202131893F8F1140029A5D0631901229A71A1E7FE
:2086400004000010F81D0020704700BF024B03EB401090F821007047040000104368B0F809
:20866000502010B41A83EFF31182502383F312884168446C0B6823EA0403C46C2343D2B237
:208680000B6082F31188D0E907418268036912681C605961D0E909415C60C46A9960B0F8CC
:2086A0006010DC600023D1625DF8044B03767047037D1F2B30B54FF02002046816D9A3F1E5
:2086C00020056168AA400A420FD00C4A002182F8441541680A681F2B22F001020A604FF02A
:2086E000200206D9203B9A40E26030BD21689A40E9E702FA03F3A360F7E700BFF81D00201B
:20870000037D01681F2B10B54FF0200217D9A3F120044968A2400A4210D00C4A002182F8A8
:20872000451541680A681F2B22F001020A6001684FF0200206D9203B9A40CA6010BD0968B5
:208740009A40E8E702FA03F38B60F7E7F81D0020F0B4037D85691F2B63D90168A3F12002C9
:208760004E6820249440264249D010239340CC60CB604B68D340DE0767D4EFF3118350227F
:2087800082F312882A6C1168C9072FD4516889B271B9D5E90964A64225D0AF692744D76008
:2087A00058D9341BA4B25460AE62002185F86410116841F00101DBB2116083F31188037DD4
:2087C0001F2B19D802681946106808238B40184200D093601068042303FA01F1014200D069
:2087E0009160F0BC7047012285F86420DBB283F31188037D1F2BE5D90168A3F120024C680A
:2088000008209040044200D0C8604C68042000FA02F22242E5D0203B00FA03F3F0BCCB6021
:2088200070470268202416689C4026421946CBD010219940946091601168D940CC079CD552
:20884000012101FA03F3936097E7012303FA02F2CA6092E72E69341BA4B25460A962A4E756
:20886000437D13B1012B04D070474FF48063838170474FF40063FAE74FF4006383817047F4
:20888000074BD0F8E4105B68D0F8F0205B1A9342C8BFC0F8F030012380F81C3100207047C6
:2088A000001000E04FF4805383817047074BD0F8E4105B68D0F8F0205B1A9342C8BFC0F8C5
:2088C000F030012380F81C3100207047001000E070B5104ED6F80431002B18DD341D0025AC
:2088E00005E0D6F80431AB4204F120040FDD237F0135002BF5D0E0680028F2D0217D21F0F5
:2089000069FCD6F80431AB4204F12004EFDC012070BD00BF040000102DE9F04FC24C94F80E
:2089200000A089B0BAF1000F1ED1D4F8F834002B16DD0026BD4831460769D0F8A0303D6850
:2089400025F0010503F1C0023D6059600C339A42FBD1D4F8F8340136B34200F58070EBDC39
:20896000012009B0BDE8F08FB14ED6F8485522F01BFCD4F80831D4F80C211433801AB0EBEC
:20898000430FC0F28881D4F804310293A94BA3FB0523A94A5B09A2FB032C4FEADC0C0CEB3F
:2089A0008C0CA3EB4C0C96F8E134182202FB0366D4F81821019206F2F143D4F81421079397
:2089C00004F5067E002305925FFA8CF2069304920EEB8C0C04F5887B261D03931F46029BF2
:2089E000BB4240F3E580B16973680A6998005368D1F8EC201FFA83F8A2EB0808D1F8E83040
:208A000000F1085008F1806500EB4310393D00EB851501468D4240F2BF800A6801F5807314
:208A2000002A00F02B810A6C002A00F02A81D1F88020002A00F02881D1F8C0201946002AD7
:208A4000E8D19D4240F2A880181AA8EBA010452828BF4520002503EB801199462846A84617
:208A6000994218D91A6892B91A6C002A40F0AE80D3F88020002A40F0D480D3F8C02003F593
:208A800080732AB98B42EBD21A68002AECD04033994200F29F804546112D7DD9C8F11503BF
:208AA000002B79DB07D000FA03F30122C8F1140002FA00F018436149C0F3C4330D4651F849
:208AC000232000F01F0351F8233043EA0233C0F34412C0F3842051F8221043EA011155F8DC
:208AE000203041EA032181EA112383EA131303F00F030F2B13D1B1F5803F10D2019B09098D
:208B00000133B1F5606F019340F0CD80079BDB5D0D2B00F0C4800B46ABF80C3008E0019BA1
:208B200001330193059B0133CDE9053A4FF6FF719EF858300498834214D0DCF80820DEF8BA
:208B400000309B1ACEF80030DCF83020DEF804309B1ACEF804300023CCF80830CCF830301A
:208B60008EF85800DEF800300133CEF80030DCF808300133CCF808304FF6FF7399427AD1CE
:208B8000DEF80430CDF80CA00133CEF80430DCF830300133CCF830300137082F0EF15C0EC8
:208BA0000CF15C0C0BF1140B06F120067FF417AF039B13B1019BC4F81831069B13B1059BD7
:208BC000C4F81431012384F81632AEE6803399427FF661AFA3EB09029211551C184A82FB79
:208BE0000592A2EBE572012AB8BF0122904001259044013A05FA02F210431D462A680AB338
:208C00002A6C002A43D0D5F88020002A41D0D5F8C02005F58075B2B1A942EFD899462B46D8
:208C20001EE7C03334E700BF0400001000050010F81D00201F85EB51CDCCCCCC74A20708CE
:208C4000565555554035A942E8D9EB1A9B115A1C164B83FB0293A3EBE273012BB8BF012359
:208C6000984098440122013B02FA03F318432B4699462B46F4E6CDF80CA08DE701F14003DF
:208C8000DFE601F18003DCE601F1C003D9E68035D9E7C035D7E7002009B0BDE8F08F80239C
:208CA0008BF81E3044E78BB236E700BF5655555510B5044670F0B0FD81B22046BDE81040A0
:208CC00034E400BF2DE9F0411F4B93F8E02493F8E1349A4232D11D4ED6F8F854002D12DD5D
:208CE0000024377806F2FC40A046013417B1037E012B1ED002691368AC4243F0010300F5EF
:208D000080701360F1D122F04FFAD6F8FC48C6F80C01002C0BDD0E4A02EBC4041168938841
:208D20008889083203439BB2A2428B81F6D1BDE8F08180F8F080FFF791FCDBE76BF02AFADC
:208D40000028C8D1BDE8F081F81D0020040000100409001010B57D4C94F8E02494F8E13417
:208D60009A4240F099817A4B93F82029002A00F0EC8093F82439002B40F0EC80D4F84C15D2
:208D8000088820F080000004000C0880B4F85005C862088880B240F0800008804B62B1F8A0
:208DA0000CC0B4F8600540EA0C0080B2012A8881A4F8603500F0C980D4F86415088820F0EB
:208DC00080000004000C0880B4F86805C862088880B240F0800008804B62B1F80CC0B4F870
:208DE000780540EA0C0080B2022A8881A4F8783500F0AB80D4F87C15088820F08000000474
:208E0000000C0880B4F88005C862088880B240F0800008804B62B1F80CC0B4F8900540EADC
:208E20000C0080B2032A8881A4F8903500F08D80D4F89415088820F080000004000C088033
:208E4000B4F89805C862088880B240F0800008804B62B1F80CC0B4F8A80540EA0C0080B2C2
:208E6000042A8881A4F8A8356FD0D4F8AC15088820F080000004000C0880B4F8B005C86233
:208E8000088880B240F0800008804B62B1F80CC0B4F8C00540EA0C0080B2052A8881A4F809
:208EA000C03552D0D4F8C415088820F080000004000C0880B4F8C805C862088880B240F0A9
:208EC000800008804B62B1F80CC0B4F8D80540EA0C0080B2062A8881A4F8D83535D0D4F8C4
:208EE000DC15088820F080000004000C0880B4F8E005C862088880B240F0800008804B6267
:208F0000B1F80CC0B4F8F00540EA0C0080B2072A8881A4F8F03518D0D4F8F425B4F8F80562
:208F2000118821F080010904090C1180D0621088B4F8081680B240F080001080536290897F
:208F4000014389B29181A4F8083610BDF81D002004000010D4F85435B4F8581559601968E8
:208F6000D4F84C0541F00101196040F20D33A0F84830818989B241F48071012A8181E4D05A
:208F8000D4F86C15B4F870054860086840F001000860D4F86405A0F84830818989B241F4F3
:208FA0008071022A8181D0D0D4F88415B4F888054860086840F001000860D4F87C05A0F8BE
:208FC0004830818989B241F48071032A8181BCD0D4F89C15B4F8A0054860086840F00100DC
:208FE0000860D4F89405A0F84830818989B241F48071042A8181A8D0D4F8B415B4F8B80583
:209000004860086840F001000860D4F8AC05A0F84830818989B241F48071052A818194D012
:20902000D4F8CC15B4F8D0054860086840F001000860D4F8C405A0F84830818989B241F432
:209040008071062A818180D0D4F8E415B4F8E8054860086840F001000860D4F8DC05A0F849
:209060004830818989B241F48071072A81813FF46CAFD4F8FC15B4F800264A600868D4F8F7
:20908000F42540F001000860A2F8483093899BB243F48073938110BD6BF07CF800287FF42E
:2090A00062AE10BD2DE9F047037D01681F2B044608D94868A3F120052022AA40024206D178
:2090C000BDE8F087086820229A400242F8D0604A604E5268C6F8282996F82429A569DFF8FB
:2090E00080910ABB8C2202FB0592D2F88800D2F80071D0F800803868B2F88CC020F00100DC
:209100003860B8F80C2092B222EA0C02A8F80C20327802BB1F2B40F29080A3F120022023C5
:209120009340CB60BDE8F0878C2202FB0592D2F888205069D2F80080026822F0010202607D
:20914000B8F80C2022F480721204120CA8F80C203278002ADED04FF08C0A0AFB059ADAF85E
:209160000071384664F088F8D6F8303901228AF8D420002B67D0B8F8003037499BB243F01A
:209180008003A8F800308C2303FB05F54FF0FF332944C8F82C30404664F0D8FA09EB050333
:2091A0000022D3F8AC00C3F8A420D3F8982039680243D3F8B0000243D3F8B4000243D3F8DF
:2091C000B8000243D3F8BC000243D3F8C0000243D3F8CC000243D3F8D00002431F4808408B
:2091E00002433A60D3E931207969024321F007010A437A61D3F8A8207A60D3F89C20BA600D
:20920000D3F8A020FA60D3F8002116215160116841F001011160D3F88820B3F88C30126824
:2092200091890B439BB20A4993814B68C6F82C39237D21681F2B3FF670AF202202FA03F341
:209240008B60BDE8F08721F0AFFFC6F8300992E7001000E004000010EC1E00203F801CF0DF
:20926000F81D00202DE9F04FDFF80CB19BF8004087B024B90124204607B0BDE8F08F3B4EFA
:20928000D6F8485521F090FF9BF860390390002B00F0DE82364AA2FB0532364B5209A3FBBB
:2092A0000213DB0803EB8303A2EB4303DAB204920BF5067202EB830300930BF58873019241
:2092C00006F1E00402930027DBF83039039AD31A04D454F8082C9342C0F26A82234A54F8AD
:2092E00058AC256ADAF800608C2303FB072393F8D430002B40F09681284663F0BDFF1B4AEF
:209300008C2303FB0723002283F8D4209AF805100C2914D8DFE811F07801130013001300A3
:2093200071011300130013007F011300130013000D00B38B23F400631B041B0CB383224620
:20934000304627F0AFFD9AF805300C2B1ED8DFE813F04B011D001D001D0042011D001D00F6
:209360001D0039011D001D001D001500F81D00201F85EB51CDCCCCCC04000010B38B23F47B
:2093800000631B041B0C43F40063B383019B54F8342C54F8101C5C330193009B5C330093B4
:2093A000029B1433029354F8483C43F04003134354F8302C134354F82C2C134354F8282C00
:2093C000134354F8242C134354F8202C1343402244F83C2C54F8142C13432A6822F07E62EB
:2093E00022F45F3222F470720B4313432B6054E907316A690B4322F0070213436B6154F880
:20940000383C6B6054F8443CAB6054F8403CEB602B6843F010032B609BF8603901379F427A
:2094200004F18C04FFF650AF012200218BF81622CBF83019002B3FF41DAF9D4890F8901071
:20944000890700F1A081D0F88810086849798A40018C92B289B221EA02010184018C89B2A7
:209460000A43012B02843FF405AF914991F81C21970700F1A281D1F8142110685479018CE4
:20948000012289B2A24092B221EA02010184018C89B20A43022B02843FF4ECAE844991F8CA
:2094A000A821960700F1A281D1F8A02110685479018C012289B2A24092B221EA02010184BF
:2094C000018C89B20A43032B02843FF4D3AE784991F83422950700F19281D1F82C22106840
:2094E0005479018C012289B2A24092B221EA02010184018C89B20A43042B02843FF4BAAE96
:209500006B4991F8C022940700F18281D1F8B82210685479018C012289B2A24092B221EA99
:2095200002010184018C89B20A43052B02843FF4A1AE5F4991F84C23900700F17281D1F872
:20954000442310685479018C012289B2A24092B221EA02010184018C89B20A43062B0284EF
:209560003FF488AE524991F8D823920700F16281D1F8D02310685479018C012289B2A24028
:2095800092B221EA02010184018C89B20A43082B02847FF46FAE464A92F864349B0740F111
:2095A0005281D2F85C240423116850790A8C83409BB292B222EA03020A840A8C92B213436C
:2095C0000B8457E6B38B23F008031B041B0C43F00803B383DAE6338B23F400631B041B0C6B
:2095E00043F400633383D1E6338B23F008031B041B0C43F008033383C8E6338B23F4006368
:209600001B041B0C33839AE6338B23F008031B041B0C338393E6B38B23F008031B041B0CDB
:20962000B3838CE66B6834F8542C1FFA83F8B389C8F116089BB223EA0203B8F1070FB3810A
:209640007FF65AAEDBF818310133CBF81831A36A05939E4600225EF804CB012191466046C2
:209660001DE0DEF800C0B9F1140FACEB000321DC13F1080048BF03F11700031109EB201994
:20968000604603F1FF3C013102FA03F3012202FA0CF2884542EA03020EF1040E0AD38845FB
:2096A000DFD8C9F11503DEF800004FF01509E8E7F81D0020B9F1150F5CD16848C2F38423E3
:2096C000C2F3441100EB830300EB8101D3F88030D1F880101B0243EA011302F01F0100EB73
:2096E0008101C2F3C43200EB8202D1F88010D2F880200B4343EA023383EA132282EA121229
:2097000002F00F020F2A35D1C3F30F134FF6FF7293422FD0B3F5606F58D0029A93810198BD
:20972000049990F858208A4210D0009A91680268521A00990260096B4268521A00994260B7
:2097400000228A600A63049980F85810019900980A6801320A608268013282604FF6FF721D
:2097600093427FF4C9AD4B6801334B60036B01330363C1E5DBF814310133CBF814316FB177
:209780004FF6FF73CBE7364AD2F8882010685479018C0422A24089B292B25CE605993148BC
:2097A000582270F0B1FCDAF800604FF6FF73B6E70024204607B0BDE8F08F294AD2F81421C5
:2097C00010685479018C042289B25BE6244991F8E12402EB420201EBC2023A4492F8F1241C
:2097E0000D2A9AD1029980228A7798E71C4AD2F8A02110685479018C042289B25BE6184A43
:20980000D2F82C2210685479018C042289B26BE6134AD2F8B82210685479018C042289B278
:209820007BE60F4AD2F8442310685479018C042289B28BE60A4AD2F8D02310685479018CB6
:20984000042289B29BE6064BD3F85C240123ABE601228BF81622CBF830390CE574A20708B5
:20986000F81D0020C0010010BFF34F8F0549064BCA6802F4E0621343CB60BFF34F8F00BF79
:20988000FDE700BF00ED00E00400FA051648174A174938B5174C184D121A70F035FCD4F8F8
:2098A0008820164B164842F47002C4F888201A68002142F001021A6099601A6822F0847260
:2098C00022F480321A6058601A6822F480221A600C4AD960521B28460B4970F015FCA560A6
:2098E000BDE83840FEF78CBB000000100400001027F5080800ED00E0000000200038024058
:209900001030002488010020000000082DE9F843044690F8210144F23B33A4F84C3108B96F
:20992000BDE8F8830509013D052D00F00F0000F29B804F4F07EB4503B3F8002142FA00F3AA
:20994000DB0740F19180012303FA00F0013810403D446EF0F7FC474E95F80C81464A804474
:2099600006F20C6909EBC8052621AB88E980B3FA83F3202BE260C3F11F02D1D0174406EB64
:2099800082020C34C2F80C494FF0004232FA03F397F8144105D0394A116821EA030111601C
:2099A00053610021284620F015FCAB8859F83820B3FA83F3C3F11F0000F0FC0101F18041D1
:2099C00001F59C3102F13F4202F57E0200F003008F688000C2F387224FF00F0C82400CFAEF
:2099E00000F027EA00008860886802438A60234A234910684FF0004727FA03F320EA030064
:209A00001060506820EA03005060D1F8000C1843C1F8000C906820EA03009060D06820EA35
:209A20000300D060D1F8082C26441A43C1F8082C96F84C29F02A08D8002B3FF471AF0F496F
:209A40000A6813430B60BDE8F883F02386F84C390C4B0022185D032168F0B8FDAB88B3FA9E
:209A600083F327FA03F3E7E7034BE36058E700BF74A20708F81D0020C1A90008003C0140B3
:209A800000300140B038080890F8DB30052B03D890F81E31032B01D00020704790F8233136
:209AA00003F0FB03022B0CBF00200720704738B500F110040546FFF729FF80226B212046D0
:209AC0001FF0C2FB642025F0F5FF03226B2120461FF0BAFB95F82021192120461FF0B4FB26
:209AE0000F2025F0E7FF2846FFF7CEFF1A21024620461FF0A9FB18221B2120461FF0A4FBE5
:209B000018221C2120461FF09FFB0222372120461FF09AFB20460122BDE8384038211FF02B
:209B200093BBF8B5054600F11004FFF7EFFE95F8D830072B5BD195F81D310226002B58D1AD
:209B4000374680226B2120461FF07EFB642025F0B1FF0722682120461FF076FB642025F0F2
:209B6000A9FF00226B2120461FF06EFB642025F0A1FF01226B2120461FF066FB0F2025F0AF
:209B800099FFFA001B2120461FF05EFB0F2025F091FFF2001C2120461FF056FB0F2025F01C
:209BA00089FF2846FFF770FF1A21024620461FF04BFB0F2025F07EFF95F8202119212046DD
:209BC0001FF042FB642025F075FF1022372120461FF03AFB0F2025F06DFF20460122382166
:209BE0001FF032FBBDE8F8400F2025F063BF0326A6E70327A5E700BF2DE9F0430269177878
:209C0000012F85B004460D4618D10B79013B13714B79002B08BF682300F1100803754FF014
:209C200000093B460DF10502752140468DF805901FF046F8064600283ED12269022313705C
:209C4000EB7823B90026304605B0BDE8F08304F11008A97840461FF00DFC06460028F1D05B
:209C6000E87820F073FAA0612B780133DBB210B1C37122238371092120F08CFCA0691FF09A
:209C8000F3FB424AD2F84835632BFBD94048DFF80891404F1FF0B8FBA08202E059F8047B84
:209CA0005FB34046B84703460028F7D0206984F8D8306CF0CDFFC6E720696CF0C9FF3B46C5
:209CC00049460DF1060240461EF0FAFF9DF8063003F07E038DF8063008B1682B14D09DF8A3
:209CE000053003F07E03682B8DF805300FD0702BA9D1042384F8D830A5E7E87820F026FAB3
:209D000020F067FC3E469EE784F8D8709BE70222062384F8D820194602AA40461EF0D0FF52
:209D2000E0B19DF80D309DF80B209B00520002F0020203F0040313439DF8092002F001021A
:209D400013430BD0012B1DD0022B17D003F00303032B13D0032026F065F874E701230DF188
:209D6000070240460C211EF0ABFF0028F2D09DF8073013F00F03EDD0042B03D0012384F845
:209D8000D93060E7002384F8D9305CE7F81D002040420F00950201089CA3070843680B4AD4
:209DA00023F0407323F4807343F48073436083681A4042F002028260C36A0139CAB223F4AF
:209DC000700141EA0251C162704700BFFDF7FFC0704700BF0020FEF76BB900BF0120FEF7C4
:209DE00067B900BF0220FEF763B900BF431C00F044812DE9F04FDFF8CCA300EB80030AEB80
:209E0000C30287B0D2F80480810005460191DB00B8F1000F05D0D468002C00F0FD80A17943
:209E200011B107B0BDE8F08FD2F81090B9F1000F00F03B8199F80620002AF2D118330AF1CC
:209E40000406F018D8F80470F250691CC0E901221523C260C9B2A3711623E17189F807100D
:209E600089F8063098F818006AF086FABB882268A18823F440731B041B0CBB80D9F8003067
:209E80001183B9F804201A831121204620F0A2F91121484620F09EF909264FF0330B05E081
:209EA000BBF1010B00F0E38025F0DEFB0A20002CF6D02268A18813691942F1D05183052049
:209EC00025F0D2FB2368A2881A83052025F0CCFB013EE2D1002C00F00D812368A2885A831F
:209EE000052025F0C1FBB9F1000F00F02B81D9F80030B9F804205A83052025F0B5FB2368EF
:209F0000A2881A83052025F0AFFBD9F80030B9F804201A83019B20465C190AEBC404A37DCF
:209F2000227D002B14BF322112211EF08FFCA37D627D002B14BF3221122148461EF086FCC4
:209F40009A4B9F4200F0E880994B9F4200F0EF80984B9F4200F00081019B2B440AEBC30ABD
:209F60004FF47A73BAF8184003FB04F4BB8823F440731B041B0CBB803B889BB243F00103DC
:209F80003B80BD8802A863F029F925F03F050498894B2D04A3FB00232D0C45EA9345BD806A
:209FA0003A8822F001021204120C3A80834A990C94420B4662DC6200B0FBF2F292B201339C
:209FC000042A38BF04223B84BA833B889BB243F001033B803B8823F4816323F002031B0443
:209FE0001B0C4FF4804143F480633B8039813B8823F080031B041B0C00223B8098F81A0081
:020000040800F2
:20A00000114668F0E3FA002298F81900114607B0BDE8F04F68F0DABAD2F81090B9F1000FE8
:20A0200000F0A58099F80620002A7FF4FAAE18330AF10401CA18D8F80470CC50C2E9014492
:20A040001623D46089F806306B1C89F8073098F818006AF091F9BB88B9F8042023F440732F
:20A060001B041B0CBB80D9F800301A8310E7002C3DD1052025F0F8FA27E7704704EB440468
:20A08000B0FBF4F082B2C0F30B0008B942F001024FF4967301FB03F34949A1FB03139B0923
:20A0A000013342F400423B848EE70AF104011833CA18D8F8047041F80390C2E90199152306
:20A0C000C2F80C90A371431CE37198F818006AF053F9BB88A28823F440731B041B0CBB805D
:20A0E000236811211A83204620F074F8D4E62268A188E3E6052025F0B7FAB9F1000F4DD02D
:20A10000D9F80030B9F804205A83052025F0ACFA052025F0A9FAF8E603F5F2331A6A42F41A
:20A1200000121A621A6A22F400121A6214E703F5F0331A6A42F480021A621A6A22F480027F
:20A140001A6209E7052025F08FFA2368A2881A83052025F089FADDE603F5EE331A6A42F42B
:20A1600000021A621A6A22F400021A62F4E618330AF10401CA18D8F8047041F80390C2E987
:20A180000199C2F80C9098F818006AF0F5F8BB8823F440731B041B0CBB807DE6052025F0B5
:20A1A00063FA052025F060FAB4E600BF0054004000580040005C004083DE1B43A0860100A7
:20A1C000D34D6210F81D00202DE9F843074620F0BFFFDFF84C8007EB8709044608EBC9051C
:20A1E00042F20F7604E020F0B3FF031BB3420ADC6B7F002BF7D108EBC90898F81C0080F04A
:20A200000100BDE8F883B8F85439013338469BB2A8F85439FFF7EAFD0020BDE8F88300BFD8
:20A22000F81D002010B582B08DF80730431C0CD00228044609DC0DF107036AF043F820B134
:20A240002046FFF7C1FF02B010BD002002B010BD70B5284D00EB800305EBC30384B05A6810
:20A260005468A28A92B20392039A12F4706F1CBF01221A77039B13F4E06F4FEA80060CD17C
:20A28000A38A304423F4706305EBC0051B041B0C0022A3826A7704B070BD238BA38823F43F
:20A2A00080631B041B0CA380039B9A05E8D423889B05E5D42388D9050FD52388DA05FCD48E
:20A2C00023889BB243F40073238023889B05FCD40190FFF78BFD0198D2E723889BB243F48E
:20A2E00000732380A38823F440731B041B0CA380C6E700BFF81D00200020A9E70120A7E7EA
:20A300000220A5E72DE9F84F304F00EB800407EBC404D4F80880B8F1000F04D09A46637FE8
:20A3200003F0FF0923B14FF000094846BDE8F88F0E469346054620F00BFF0A9B7600F6B2F7
:20A34000C4E909330123A67784F81FB084F8219084F8223084F820A0637784F81C90B8F89F
:20A3600004209105064622D4B8F80030DA0512D442F20F7404E020F0EBFE831BA3421ADC2F
:20A38000B8F800309B05F6D4B8F800309BB243F48073A8F80030B8F804309BB24FF00109D2
:20A3A00043F44073A8F804304846BDE8F88F99464846BDE8F88FB7F8543901339BB2284661
:20A3C000A7F85439FFF712FDAFE700BFF81D0020F8B5724C04EB0016D6F85839002B00F0D8
:20A3E0008A800546070196F8600969F0C5FF96F86039590903F01F0203294FF0010303FAE3
:20A4000002F300F08E8004297BD0022974D0E319013593F85C091FF099FEEDB2064610B1EE
:20A4200012238371C571E31993F85D091FF08EFE10B11323C5718371E31993F85E091FF017
:20A4400085FE10B11423C57183713C444A2194F85F2930461EF0FAF994F85D091FF076FE6C
:20A4600094F85F292A211EF0F1F994F85E091FF06DFE94F85F290A211EF0E8F9D4F858299D
:20A48000474B9A4252D0474B9A423FD0464B9A4257D0464B9A425FD0454B9A4267D0454B4C
:20A4A0009A426FD0444990884C880B884D8923438C882343CC8820F0030023430C89000459
:20A4C000000C23438C8990802B4310882343CC89098A00F44150234303439BB21380938B62
:20A4E00023F400631B041B0C9383118213889BB243F040031380F8BD304A516A0B43536215
:20A5000085E72E4A11690B43136180E703F50033196A41F480411962196A21F480411962C1
:20A52000C0E7264A116A0B43136270E703F58433596A41F480515962596A21F480515962D8
:20A54000B0E703F5FE33196A41F400411962196A21F400411962A5E703F58233596A41F442
:20A5600000515962596A21F4005159629AE703F56843596A41F480115962596A21F480111A
:20A5800059628FE703F56443596A41F400115962596A21F40011596284E700BFF81D002024
:20A5A0000030014000380040003C0040003401400050014000540140880100200038024078
:20A5C00010B404698269E468416814604024D460446900230C31C2E90433C2E90633C2E9E0
:20A5E0000833C2E90A33C2E90C3393609363516084B1C269E0689363C2E90233C2E9043354
:20A60000C2E90633C2E90833C2E90A33C2E90C33C2E900015DF8044B704700BF436800220B
:20A620001A60037D1F2B08D9203B2022016802FA03F343F01803CB6070472022016802FA26
:20A6400003F343F018038B60704700BF0268136A11B1D96901B3143330B49C681D68916908
:20A66000DDB14FF4806088618D60104640690C6180B15968D369C9B10A464FF480619A60D1
:20A680009961224312F0010F14BF00224FF400521A621C6130BC704770478D61054D4FF0ED
:20A6A000FF0C05F812CF00688D60DFE7024A9A609961E6E788010020802700200168F8B503
:20A6C000D1E9042304465568002B49D09861107D5E681F2831D81768202202FA00F040F0D5
:20A6E0001800B8601A7D1F2A32D91868203A202303FA02F242F01802C26000232B60336082
:20A700003368896943F010033360284662F04AFE23683046D96962F045FE2B68226843F0A3
:20A7200001032B603368526843F00103336093889BB243F003039380F8BD176820382022E9
:20A7400002FA00F040F01800F8601A7D1F2ACCD81868202303FA02F242F018028260CCE754
:20A76000137D90611F2B1CD81068202202FA03F343F01803836000232B602B68896943F0D7
:20A7800010032B60284662F00DFE2B68226843F0010352682B6093889BB243F00203938004
:20A7A000F8BD1068203B202202FA03F343F01803C360E0E72DE9F843DFF800927D4F0646D3
:20A7C000356896F888806B68B088012285F824201A8822F040021204120C1A802A8982421C
:20A7E00023D0198821F0380109044B454FEA114100F0BC80704A934200F0B8800246B2F581
:20A80000807FA8BF4FF48072022AB8BF0222002A92FAA2F2B2FA82F208BF4FF0FF32013AFA
:20A8200041EAC20292B21A802881317BAA7A8A420CD01A8822F003021204120C1A801A8801
:20A8400092B2002900F08F801A80A9721A8892B242F040021A802A6A9168002900F0A0801D
:20A860004FF0000C1432E64652F8100C8E4400EA070120B1B1F1805F23D0696909B352F8D4
:20A88000140C143200EA070110B1B1F1805F18D052F80C1C0CF1010C0029E5D12A7B82B103
:20A8A000B8F1000F0DD0BCF1010F6CD8BEF1070F69D80CEB8C0189002A6A11440A7B002A57
:20A8C00061D02A6A9268002A52D000220AB1127B22B1B26812B1116892884A832A6A1468E3
:20A8E0002A6A51682A6A9268501E9AB12CB3224612F801CB14461A899207FCD5A3F80CC0D9
:20A900001A89D207FCD59A8992B209B101F8012B0138EBD22B6A1B7BF3B92B6A1B6993B17A
:20A920002B6AD6F894001B699847012808D0022809D100232B62BDE8F8834FF0FF0CDAE7DD
:20A940002B6A143B2B622A6A2B6A14332B622B6A9B686BB16B68B9E7B368002BDDD01A68ED
:20A960009B881383D9E742F003026DE7420846E72B6A1B68DBB12B6AD3E900622A62002257
:20A98000C3E900221CE700213046FFF75FFEB36813B11A689B8853833046BDE8F8438DE6D9
:20A9A0002A7B002A8DD0B8F1000F85D189E72B62C1E700BF0000FFFF003C00400038004007
:20A9C00038B5D0F8E0102C4B04465A68D0F8D80071B1131A99420BDC94F8D030C4F8D8205E
:20A9E000012B10D0D4F8D4300133C4F8D43038BDD4F8E430C4F8D8200344C4F8DC3094F863
:20AA0000D030012BEED16168201D04F1E805EFF3118C002383F3128863681B6A0BB3D4F8D7
:20AA2000F0302A461BB1D3691432002BFBD10B6AFBB1996839B9934209D0196829B15B6861
:20AA400099680029F7D01433F3E7C3E900055FFA8CFC8CF31188D4F8D4300133C4F8D43076
:20AA600038BD0D625FFA8CFC8CF31188FFF7A2FEB8E71860FFDE00BF001000E0F0B58569AD
:20AA8000296995F84C210B78012B97B0044606D0022B01D10B6A2BB3002017B0F0BD91F9A4
:20AAA0000460731CF8D0022EF6DC04AB297D009330460623FFF726FC0028EDD03046FFF7E9
:20AAC00083FB0028E8D0BDF81010BDF81220BDF8143049BA52BA5BBA0120E1812282638233
:20AAE00017B0F0BD62F07F028DF80F200DF10F029FED257B06920122CDE907328DF8382099
:20AB00008DF84C2004AA0C920622CDE90A338DED107B8DF824300F93129314930D9205F17C
:20AB20001000EFF3118683F312882B691B6AFBB1089B06AF3A461BB1D3691432002BFBD19A
:20AB40000B6AEBB1996839B9934209D0196829B15B6899680029F7D01433F3E7C3E9000760
:20AB6000F6B286F311882A69136A002BFCD1AAE706ABF6B20B6286F31188FFF71BFEF2E7C2
:20AB80001860FFDEAFF30080000000000000000070B5016990F84D210B78012B96B004467A
:20ABA00006D0022B01D10B6A43B3002016B070BD91F904506B1CF8D0022DF6DC04AB017DE7
:20ABC000009328460623FFF79DFB0028EDD02846FFF7FAFA0028E8D0BDF81010BDF81220E4
:20ABE000BDF8143049BA52BA5BBA0120A4F8D010A4F8D220A4F8D43016B070BD62F07F02A7
:20AC00008DF80F200DF10F029FED257B06920122CDE907328DF838208DF84C2004AA0C9281
:20AC20000622CDE90A338DED107B10308DF824300F93129314930D92EFF3118583F31288C6
:20AC400023691B6AFBB1089B06AE32461BB1D3691432002BFBD10B6AEBB1996839B99A4243
:20AC600009D0196829B15B6899680029F7D01433F3E7C3E90006EDB285F311882269136A61
:20AC8000002BFCD1A8E706AB0B62EDB285F31188FFF790FDF2E71860FFDE00BFAFF30080CD
:20ACA00000000000000000002DE9F041826992F8DC30012B8AB005464DD0023B012B55D868
:20ACC00092F84C31D2F89C20304C63F07F0313708669D6F8A030D6F8108003F1010E0FCC4A
:20ACE000EC46ACE80F00D6F89C30CDE9003E0FCCACE80F0094E8030006F110078CE803006F
:20AD0000EFF31180002383F3128833691B6A002B30D0029B6A461BB1D3691432002BFBD1AF
:20AD2000D8F82030002B2ED0996839B993420AD0196829B15B6899680029F7D01433F3E7F8
:20AD40001F60C3F804D0C0B280F31188AA6911690B6A002BFCD1D2F8A0305A8852BAEA817A
:20AD60009A8852BA2A82DB885BBA6B8201200AB0BDE8F081C8F820D0C0B280F311883846F7
:20AD8000FFF718FDE2E71F60FFDE00BFB8A307082DE9F04190F8DC30D0F8A050012B8AB061
:20ADA000044659D016D8D0F89C304FF0FF321A605A609A60DA60D0F8E0300522B3F57A7F26
:20ADC000C0F8F0207DD8032380F8DC3001200AB0BDE8F081023B012BF8D890F84D31D0F8B4
:20ADE0009C20544E63F07F031370D0F8A030D0F8108003F1010E00F110070FCEEC46ACE8FF
:20AE00000F00D4F89C30CDE9003E0FCEACE80F0096E803008CE80300EFF31180002383F313
:20AE2000128823691B6A002B74D0029B6A461BB1D3691432002BFBD1D8F82030002B76D0D5
:20AE4000996839B9934225D0196801B35B6899680029F7D01433F3E790F84C2190F84D3130
:20AE60009B1A5B100133DBB205EB430235F813305BBAA0F8D03053885BBAA0F8D2309388FA
:20AE80005BBAA0F8D43001200AB0BDE8F0811F60C3F804D0C0B280F311882269136A002B51
:20AEA000FCD16B885BBAA4F8D030AB885BBAA4F8D230EB8801205BBAA4F8D4300AB0BDE893
:20AEC000F08103691A7B72B35B6963B390F898304BB390F84C31D0F89C20C4F8A40063F077
:20AEE0007F03137090F84C1190F84D31D0F8A0201148C4F804015B1A07330121C4F8FC3007
:20AF0000D4F89C3084F800110A44C4E93D3284F8DC105BE7C8F820D0C0B280F3118838464C
:20AF2000FFF748FCB9E7022384F8DC304EE71F60FFDE00BFB8A307088D8000082DE9F04F66
:20AF4000A24C94F8892995B0002A40F0288102F0FF03FF228DF80F200DF10F02CDE90423C8
:20AF60000122CDE90833CDE90A3301680D93064606928DF81C208DF83020EFF3118583F359
:20AF8000128803681B6A002B00F00D81069B04AF3A461BB1D3691432002BFBD10B6A002BC5
:20AFA00000F01181996839B9934209D0196829B15B6899680029F7D01433F3E7C3E900672B
:20AFC000EDB285F311883268136A002BFCD1804D01974FF064084FF010094FF0E0224FF4C6
:20AFE0007A7C4FF0010AB3466B68C3F30803002B40F09E80EFF31183002B40F09980D4F855
:20B0000048359069D4F848158B42F8D1D4F894198842F4D8D4F890E90CFB0EF1091AB1FBD2
:20B02000FEF10CFB03116B68C3F30803002B62D1EFF31183002B5ED1D4F848059669D4F860
:20B0400048359842F8D1D4F894399E42F4D8D4F890790CFB07F39B1BB3FBF7F30CFB00332D
:20B060005B1AB3F57A7FDED3B8F10108BCD10DF10F030A93012306930B938DF830308DF858
:20B08000443080238DF80E300DF10E03049300220023CDE90888CDE90E23019FDBF800103B
:20B0A000CDF814805E468DF81C80CDF83480CDF84080CDF84880EFF3118088F31288DBF88C
:20B0C00000301B6A002B76D0069B3A461BB1D3691432002BFBD10B6A002B74D0996841B905
:20B0E000934247D01968002942D05B6899680029F6D01433F2E7EFF3118689F31288976946
:20B100001369DB0344BFC4F88CA99769D4F84835D4F88C09F6B286F31188D4F8906918445C
:20B120000CFB06F3DB1BB3FBF6F30CFB003397E7EFF3118089F31288D2F818E01369D90327
:20B1400044BFC4F88CA9D2F818E0D4F84835D4F88C19C0B280F31188D4F890090B440CFB46
:20B1600000F1A1EB0E01B1FBF0F10CFB03115AE7C3E90067C0B280F311883268106A00288D
:20B18000FCD19DF80F20D12A02D015B0BDE8F08F01230E2084F8893915B0BDE8F08F0E20C1
:20B1A00015B0BDE8F08F04AFEDB20F6285F31188FFF700FB07E70F62C0B280F31188584666
:20B1C000FFF7F8FAD9E71E60FFDE00BFF81D002000ED00E038B504462549D0F8D83094F8AA
:20B1E000D020D0F8E40049680344012AC4E9361305D0D4F8D4300133C4F8D43038BD616843
:20B20000201D04F1E805EFF3118C002383F3128863681B6A0BB3D4F8F0302A461BB1D369EB
:20B220001432002BFBD10B6AFBB1996839B9934209D0196829B15B6899680029F7D01433B9
:20B24000F3E7C3E900055FFA8CFC8CF31188D4F8D4300133C4F8D43038BD0D625FFA8CFC61
:20B260008CF31188FFF7A6FAC3E71860FFDE00BF001000E02DE9F047866996F8DC30012B70
:20B280008AB005465CD0023B012B55D8D6F89C30394C92221A70D6F89C30876903F1010A81
:20B2A000D6F8A030D7F8109003F101080FCCEC46ACE80F000FCCACE80F0094E80300CDE921
:20B2C00000A88CE8030007F1100EEFF31180002383F312883B691B6A002B40D0029B6A46E2
:20B2E0001BB1D3691432002BFBD1D9F82030002B3ED0996839B993420BD0196829B15B68EE
:20B3000099680029F7D01433F3E7C3F800E0C3F804D0C0B280F31188AB691A69136A002B34
:20B32000FCD1D6F8A030B3F90220EA81B3F904202A82B3F906306B8201200AB0BDE8F08727
:20B34000D6F8A030B3F90820C281B3F90A200282B3F90C30438201200AB0BDE8F087C9F879
:20B3600020D0C0B280F311887046FFF723FAD3E7C3F800E0FFDE00BFB8A307082DE9F043F2
:20B3800090F8DC30D0F8A050012B8BB0044661D015D8D0F89C3000221A605A609A609A8193
:20B3A000D0F8E0300522B3F57A7FC0F8F02061D8032380F8DC3001200BB0BDE8F083023B11
:20B3C000012BF8D8D0F89C30424E8C225A70D0F89C30D0F8109003F10108D0F8A03000F153
:20B3E000100703F1010E0FCEEC46ACE80F000FCEACE80F0096E80300CDE9008E8CE80300C5
:20B40000EFF31180002383F3128823691B6A002B50D0029B6A461BB1D3691432002BFBD198
:20B42000D9F82030002B52D0996839B993420AD0196829B15B6899680029F7D01433F3E7CC
:20B440001F60C3F804D0C0B280F311882269136A002BFCD1B5F90230A4F8D030B5F9043002
:20B46000A4F8D230B5F90630A4F8D43001200BB0BDE8F08303691A7B2AB35B691BB390F8BE
:20B48000983003B3D0F89C30C4F8A4008C225A70D0E9272301211048C4F804010D250A4404
:20B4A0000B44C4E93D23C4F8FC5084F8001184F8DC1080E7C9F820D0C0B280F3118838461F
:20B4C000FFF778F9C2E7022384F8DC3073E71F60FFDE00BFB8A30708818800082DE9F04F6A
:20B4E000C34C97B094F89839029013B994F8893953BB029F97F82131002B40F09C8122685B
:20B50000BC4BB3EB920F80F07E86B3EBD20F80F07D86B3EB121F80F07F86B3EB521F80F0BC
:20B520007886B3EB921F80F07D86B3EBD21F80F07686B3EB122F34BF4FF480738023029A09
:20B54000938217B0BDE8F08F103015227E2103901DF020FE0398A84E4FF064084FF0100C80
:20B560004FF0E0224FF47A714FF0010E83467368C3F30803002B40F04181EFF31183002BEB
:20B5800040F03C81D4F848359769D4F84855AB42F8D1D4F89459AF42F4D8D4F8900901FB7F
:20B5A00000F5ED1BB5FBF0F501FB03557368C3F30803002B40F0C280EFF31183002B40F09B
:20B5C000BD80D4F848059769D4F848359842F8D1D4F894399F42F4D8D4F890A901FB0AF3E5
:20B5E000DB1BB3FBFAF301FB00335B1BB3F57A7FDCD3B8F10108BAD1584611227E21CDF853
:20B600000CB01DF0C7FD03987B4E4FF0050C4FF0100E4FF0E0224FF47A714FF0010883460C
:20B620007368C3F30803002B40F0C480EFF31183002B40F0BF80D4F848359769D4F848550D
:20B64000AB42F8D1D4F89459AF42F4D8D4F8900901FB00F5ED1BB5FBF0F501FB035573689C
:20B66000C3F30803002B40F08780EFF31183002B40F08280D4F848059769D4F84835984298
:20B68000F8D1D4F894399F42F4D8D4F890A901FB0AF3DB1BB3FBFAF301FB00335B1BB3F5BF
:20B6A0007A7FDCD3BCF1010CBAD1029A8DF824C083238DF816300DF1160601230DF11705CF
:20B6C0004FF000084FF0000908930D938DF838308DF84C30CDE9066CCDE90ACCCDE91089AF
:20B6E0001369CDF83CC05846CDF848C0CDF850C00C95EFF3118E8CF312881269126A002A71
:20B7000000F07285089A0DF1180841461AB1CA691431002AFBD11B6A002B00F086859A6815
:20B7200052B98B4200F0CA801A68002A00F0C4805B689A68002AF4D01433F0E7EFF31189CA
:20B740008CF3128890691369DF0344BFC4F88CE99069D4F84835D4F88C795FFA89F989F3DB
:20B760001188D4F890991F4401FB09F31B1AB3FBF9F301FB073338E7EFF311898EF3128825
:20B7800090691369DF0344BFC4F88C899069D4F84835D4F88C795FFA89F989F31188D4F8AF
:20B7A00090991F4401FB09F31B1AB3FBF9F301FB073373E7EFF311858EF31288906913699E
:20B7C000DB0344BFC4F88C899069D4F84875D4F88C39EDB285F311883B44D4F8907901FBA4
:20B7E00007F52D1AB5FBF7F501FB035537E700BFF81D00208096980000ED00E0EFF3118511
:20B800008CF3128890691369DB0344BFC4F88CE99069D4F84875D4F88C39EDB285F31188C5
:20B820003B44D4F8907901FB07F52D1AB5FBF7F501FB0355BAE61D09013D052D03F00F034A
:20B8400000F26E84184E06EB4502B2F8000140FA03F2D20740F16484012202FA03F3013B49
:20B8600018406CF06FFD7319104D93F80C31104A184405EBC00539462623EB80002341F8FD
:20B880000C2F28460093F0221EF0C2FEAA884FF00043B2FA82F2D3403FF431AE05490A68D3
:20B8A00013430B602BE600BF74A2070804240020D5B10008003C0140C3E900085FFA8EF3F1
:20B8C00083F31188029B1A69136A002BFCD19DF8173003F03C03142B7FF40BAE1B224021AD
:20B8E00003901DF057FCCB4B03985B68C3F30803002B40F0A281EFF31183002B40F09D81B3
:20B900004FF0E02CD4F84835DCF81810D4F848259342F7D1D4F894299142F3D8D4F890C975
:20B92000DFF8F0A24FF47A7202FB0CFEAEEB010E4FF47A79BEFBFCFE4FF0E02102FB03EEA9
:20B940004FF0100BDAF80430C3F30803002B40F08E81EFF31183002B40F08981D4F8483538
:20B960008F69D4F848259342F8D1D4F894299742F4D8D4F890C909FB0CF2D21BB2FBFCF21B
:20B9800009FB0323A3EB0E03B3F57A7FDAD394F89D39013BDBB2022B00F2E4819E4A1344A2
:20B9A00093F86C2142F00D02422103901DF0F2FB984B03985B68C3F30803002B40F0D68388
:20B9C000EFF31183002B40F0D1834FF0E02CD4F84835DCF81810D4F848259342F7D1D4F810
:20B9E00094299142F3D8D4F890C9DFF828A24FF47A7202FB0CFEAEEB010E4FF47A79BEFB59
:20BA0000FCFE4FF0E02102FB03EEDAF80430C3F30803002B40F08781EFF31183002B40F003
:20BA20008281D4F848358F69D4F848259342F8D1D4F894299742F4D8D4F890C909FB0CF296
:20BA4000D21BB2FBFCF209FB0323A3EB0E03B3F57A7FDAD30822412103901DF09BFB6D4BCD
:20BA600003985B68C3F30803002B40F06583EFF31183002B40F060834FF0E02CD4F848351C
:20BA8000DCF81810D4F848259342F7D1D4F894299142F3D8D4F890C9DFF878A14FF47A7269
:20BAA00002FB0CFEAEEB010E4FF47A79BEFBFCFE4FF0E02102FB03EEDAF80430C3F30803F9
:20BAC000002B40F01181EFF31183002B40F00C81D4F848358F69D4F848259342F8D1D4F837
:20BAE00094299742F4D8D4F890C909FB0CF2D21BB2FBFCF209FB0323A3EB0E03B3F57A7FCB
:20BB0000DAD30022432103901DF044FB414B03985B68C3F30803002B40F04C83EFF31183C8
:20BB2000002B40F047834FF0E02CD4F84835DCF81810D4F848259342F7D1D4F8942991421E
:20BB4000F3D8D4F890C9DFF8CCA04FF47A7202FB0CFEAEEB010E4FF47A79BEFBFCFE4FF0AC
:20BB6000E02102FB03EEDAF80430C3F30803002B40F09B80EFF31183002B40F09680D4F8E6
:20BB800048358F69D4F848259342F8D1D4F894299742F4D8D4F890C909FB0CF2D21BB2FB6A
:20BBA000FCF209FB0323A3EB0E03B3F57A7FDAD3012208920D928DF838208DF84C20F7223D
:20BBC0008DF81620029A0C9500234FF0000A4FF0000BCDE90A33CDE910AB1569069607939F
:20BBE0008DF824300F9312931493EFF3118183F3128813691B6A002B00F0D282089B42465F
:20BC00001BB1D3691432002BFBD12B6A002B00F00C8303E000ED00E074A207089D6855B9B8
:20BC2000934200F0A3801D68002D00F09D805B689D68002DF4D01433F0E7EFF311821023DE
:20BC400083F312884FF0E0239969D3F810C01CF4803F03D00121C4F88C199969D4F848E5D5
:20BC6000D4F88C39D2B282F31188734456E6EFF311838BF312888F690A69D20303D50122E5
:20BC8000C4F88C298F69D4F84825D4F88CC9DBB283F311886244D4F890C909FB0CF3DB1B81
:20BCA000B3FBFCF309FB02336CE6EFF31183102282F312888F690A69D20303D50122C4F8AE
:20BCC0008C298F69D4F84825D4F88CC9DBB283F311886244D4F890C909FB0CF3DB1BB3FB4F
:20BCE000FCF309FB02335EE7EFF31183102282F312888F690A69D20303D50122C4F88C2974
:20BD00008F69D4F84825D4F88CC9DBB283F311886244D4F890C909FB0CF3DB1BB3FBFCF3D4
:20BD200009FB0233E8E6EFF31183102282F312888F690A69D20303D50122C4F88C298F69A1
:20BD4000D4F84825D4F88CC9DBB283F311886244D4F890C909FB0CF3DB1BB3FBFCF309FB88
:20BD6000023372E60D221FE6C3E90008C9B281F31188029B1A69136A002BFCD19DF8172065
:20BD80000390772142F0C0021DF004FA0398102251211DF0FFF9BE4B03985B68C3F308030D
:20BDA000002B40F09A81EFF31183002B40F095814FF0E025D4F84835A969D4F84825934279
:20BDC000F8D1D4F894299142F4D8D4F890594FF47A7202FB05F6761AB6FBF5F602FB036604
:20BDE000DFF8ACE24FF0E0254FF47A7C4FF010094FF00108DEF80430C3F30803002B40F09B
:20BE00000681EFF31183002B40F00181D4F84825A969D4F848359342F8D1D4F894298A42C1
:20BE2000F4D3D4F890790CFB07F2521AB2FBF7F20CFB03239B1BB3F57A7FDBD30A22532192
:20BE400003901DF0A7F9924B03985B68C3F30803002B40F01F81EFF31183002B40F01A813F
:20BE60004FF0E025D4F84835A969D4F848259342F8D1D4F894299142F4D8D4F890594FF42C
:20BE80007A7202FB05F6761AB6FBF5F602FB0366DFF8FCE14FF0E0254FF47A7C4FF01009A3
:20BEA0004FF00108DEF80430C3F30803002B40F09180EFF31183002B40F08C80D4F84825ED
:20BEC000A969D4F848359342F8D1D4F894299142F4D8D4F890790CFB07F2521AB2FBF7F26A
:20BEE0000CFB03239B1BB3F57A7FDBD3802256211DF050F9664B5B68C3F30803002B40F011
:20BF0000A380EFF31183002B40F09E804FF0E020D4F848358169D4F848259342F8D1D4F8FA
:20BF200094298A42F4D3D4F890094FF47A7202FB00F56D1AB5FBF0F502FB0355DFF850C1D2
:20BF40004FF0E0204FF47A764FF010084FF0010EDCF80430C3F30803FBB9EFF31183E3B93B
:20BF6000D4F848358169D4F848259342F8D1D4F894298A42F4D3D4F8907906FB07F2521A60
:20BF8000B2FBF7F206FB03235B1BB3F57A7FDFD3012384F89839FFF7ACBAEFF3118388F35D
:20BFA000128881690269D70302D5C4F88CE98169D4F84875D4F88C29DBB283F311883A44A2
:20BFC000D4F8907906FB07F35B1AB3FBF7F306FB0233D9E7EFF3118389F31288A9692A695D
:20BFE000D70302D5C4F88C89A969D4F84875D4F88C29DBB283F311883A44D4F890790CFBAD
:020000040800F2
:20C0000007F35B1AB3FBF7F30CFB02336AE7EFF3118389F31288A9692A69D70302D5C4F8EE
:20C020008C89A969D4F84875D4F88C29DBB283F311883A44D4F890790CFB07F35B1AB3FBBC
:20C04000F7F30CFB0233F5E6EFF31182102383F312884FF0E02399691869C00303D50121A5
:20C06000C4F88C199969D4F84835D4F88C59D2B282F31188D4F890094FF47A721D4402FBDF
:20C0800000F35B1AB3FBF0F302FB053556E700BF00ED00E0EFF31182102383F312884FF0B0
:20C0A000E02399691D69ED0303D50121C4F88C199969D4F84835D4F88C69D2B282F311880C
:20C0C000D4F890594FF47A721E4402FB05F35B1AB3FBF5F302FB0636DAE6EFF31182102379
:20C0E00083F312884FF0E02399691D69ED0303D50121C4F88C199969D4F84835D4F88C690F
:20C10000D2B282F31188D4F890594FF47A721E4402FB05F35B1AB3FBF5F302FB06365FE6C9
:20C120000299434B41F80C3F002300931846F0221EF06EFAFFF7E3B9EFF31182102383F306
:20C1400012884FF0E0239969D3F810C01CF4803F03D00121C4F88C199969D4F848E5D4F87A
:20C160008C39D2B282F31188734493E4EFF31182102383F312884FF0E0239969D3F810C0A3
:20C180001CF4803F03D00121C4F88C199969D4F848E5D4F88C39D2B282F31188734422E49F
:20C1A000C5F82080C9B281F311880390FEF702FB0398DEE5EFF31182102383F312884FF0C0
:20C1C000E0239969D3F810C01CF4803F03D00121C4F88C199969D4F848E5D4F88C39D2B28A
:20C1E00082F311887344ACE40DF118085FFA8EFEC3F820808EF31188CDF80CB0FEF7DAFA28
:20C200000398FFF75FBB0223FFF799B90423FFF796B91023FFF793B90823FFF790B9402358
:20C22000FFF78DB92023FFF78AB91860FFDE00BFD5B100082DE9F04F836893B0054613B112
:20C240001A689B885383BF4B5B68C3F30803002B40F00481EFF31183002B40F0FF80BA4BA0
:20C260004FF0E024D3F84825A069D3F848158A42F8D1D3F894198142F4D3D3F890694FF474
:20C280007A7404FB06F1091AB1FBF6F104FB0211AC4E4FF0E0204FF47A744FF0100C012705
:20C2A0007268C2F30802002A40F09F80EFF31182002A40F09A80D3F84885D0F818E0D3F860
:20C2C00048259045F7D1D3F894299645F3D8D3F8909904FB09F2A2EB0E02B2FBF9F204FB04
:20C2E0000822521AB2F57A7FDAD3AA6812B1116892880A8393480A2410264FF0E0214FF4A4
:20C300007A7C4FF0010B4268C2F30802002A40F08E80EFF31182002A40F08980D3F84825FB
:20C32000D1F81880D3F84875BA42F7D1D3F89479B845F3D8D3F890990CFB09FEAEEB080EFF
:20C34000BEFBF9FE0CFB02EE4268C2F3080252BBEFF311823ABBD3F84875D1F81890D3F892
:20C3600048259742F7D1D3F894299145F3D8D3F890A90CFB0AF2A2EB0902B2FBFAF20CFB47
:20C380000722A2EB0E02B2F57A7FDDD3013CBAD12B68ADF804401A6A002A00F0848020463B
:20C3A00013B0BDE8F08FEFF3118986F31288D1F818A00A69D20344BFC3F88CB9D1F818A0BA
:20C3C000D3F84825D3F88C795FFA89F989F3118807EB0208D3F890790CFB07F2A2EB0A02FC
:20C3E000B2FBF7F20CFB0822CBE7EFF311828CF31288D0F81880D0F810E01EF4803F03D07A
:20C40000C3F88C79D0F81880D3F84895D3F88CE9D2B282F31188CE44D3F8909904FB09F282
:20C42000A2EB0802B2FBF9F204FB0E2259E7EFF3118E86F31288D1F818800A69D70344BF19
:20C44000C3F88CB9D1F81880D3F84895D3F88C295FFA8EFE8EF311884A446BE7EFF3118100
:20C46000102383F312884FF0E0229069136913F4803F354B03D00120C3F88C099069D3F875
:20C480004845D3F88C29C9B281F31188D3F8906911194FF47A7404FB06F2121AB2FBF6F230
:20C4A00004FB0121F4E680218DF803100DF10301029101A90891022101220991002000214F
:20C4C000CDE90342CDE90644CDE90C018DF814408DF828208DF83C200B940E941094EFF350
:20C4E000118284F312882968096A00292ED0049902A8002933D00146CC691431002CFBD141
:20C500001B6A002B2DD09C683CB9994209D01C682CB15B689C68002CF7D01433F3E7C3E9D9
:20C520000050D2B282F311882B681A6A002AFCD19DF80530242B14BF00200F2013B0BDE868
:20C54000F08F00BF00ED00E0F81D002002A91962D2B282F311882846FEF72CF9E4E7014649
:20C56000CEE71D60FFDE00BF38B504462549D0F8D83094F8D020D0F8E40049680344012A2D
:20C58000C4E9361305D0D4F8D4300133C4F8D43038BD6168201D04F1E805EFF3118C00238D
:20C5A00083F3128863681B6A0BB3D4F8F0302A461BB1D3691432002BFBD10B6AFBB199689A
:20C5C00039B9934209D0196829B15B6899680029F7D01433F3E7C3E900055FFA8CFC8CF37A
:20C5E0001188D4F8D4300133C4F8D43038BD0D625FFA8CFC8CF31188FEF7DCF8C3E7186096
:20C60000FFDE00BF001000E02DE9F041866996F8DC30012B8AB005464AD0023B012B52D860
:20C62000D6F89C302F4C8C221A70D0F818800FCCEC46D8F810E0ACE80F00D6F89C300093B0
:20C64000D6F8A03001930FCCACE80F0094E8030008F110078CE80300EFF31180002383F318
:20C660001288D8F810301B6A002B30D0029B6A461BB1D3691432002BFBD1DEF82030002B7D
:20C680002ED0996839B993420AD0196829B15B6899680029F7D01433F3E71F60C3F804D0BC
:20C6A000C0B280F31188AB691A69136A002BFCD1D6F8A030B3F90220EA81B3F904202A829D
:20C6C000B3F906306B8201200AB0BDE8F081CEF820D0C0B280F311883846FEF76BF8E2E7C7
:20C6E0001F60FFDEE4A307082DE9F04190F81E31032B8AB0044671D090F8DC30D0F8A060DB
:20C70000012B00F0CB8016D8D0F89C3000221A605A609A609A81D0F8E0300522B3F57A7F25
:20C72000C0F8F0204DD80323012580F8DC3028460AB0BDE8F081023B012B4AD8D0F89C30DF
:20C74000DFF840E292221A70D0F8108000F11007BEE80F006D46AC46ACE80F00BEE80F0090
:20C76000ACE80F009EE80300D4F89C308CE803000093D4F8A0300193EFF31180002383F3AF
:20C78000128823691B6A002B00F0E780029B2A461BB1D3691432002BFBD1D8F82030002BCF
:20C7A00000F0E480996851B99A4200F08A801968002900F084805B6899680029F4D01433AE
:20C7C000F0E703691A7B002A40F0A480022384F8DC30012528460AB0BDE8F0816548664996
:20C7E00000230122CDE900010A210291CDE90433CDE9063321698DF80C2004F110068DF8D7
:20C8000020200993EFF3118083F3128823691B6A002B6ED0029B6D462A461BB1D369143231
:20C82000002BFBD10B6A002B00F0A280996839B9934209D0196829B15B6899680029F7D09F
:20C840001433F3E7C3E90065C0B280F311882269136A002BFCD14949B1F8C229052A1BDDDB
:20C86000B1F9C409D1F8C459B1F9C679B1F9C81910F5004F46D0C4F8D050A4F8D4100125FB
:20C88000063A002AA6D03046B0227E211CF082FC28460AB0BDE8F0811D46F2E7B6F90820F6
:20C8A000A0F8D020B6F90A20A0F8D220B6F90C20A0F8D4201D4628460AB0BDE8F081C3E9D9
:20C8C0000075C0B280F311882269136A002BFCD1B6F90230A4F8D030B6F90430A4F8D23067
:20C8E000B6F90630A4F8D430012528460AB0BDE8F081C1F820D0C0B280F311883046FDF7BE
:20C9000059FFA4E717F5004FB5D111F5004FB2D11D46B5E75B69002B3FF458AF90F89850E3
:20C92000002D3FF453AFD0F89C30C4F8A4008C221A70D0F8A020C0F8F8200E220123104964
:20C94000C0F8FC20D0F89C20C0F80411C0F8F42080F8003180F8DC303CE7C8F82050C0B2F4
:20C9600080F311883846FDF725FFADE71F60FFDE1E60FFDE9C010020B8270020F81D0020D9
:20C98000AD880008E4A307080248036B0BB1203018477047880100200248436D0BB1443017
:20C9A00018477047880100200248836F0BB1683018477047880100200348D0F89C300BB1CE
:20C9C0008C301847704700BF880100200348D0F8C0300BB1B0301847704700BF8801002000
:20C9E0000348D0F8E4300BB1D4301847704700BF880100200348D0F808310BB1F830184743
:20CA0000704700BF880100200348D0F82C3113B100F58E7018477047880100200348D0F8FE
:20CA2000503113B100F5A07018477047880100200348D0F8743113B100F5B2701847704744
:20CA4000880100200348D0F8983113B100F5C47018477047880100200348D0F8BC3113B1E1
:20CA600000F5D67018477047880100200348D0F8E03113B100F5E8701847704788010020C8
:20CA80000348D0F8043213B100F5FA7018477047880100200348D0F8283213B100F50670CF
:20CAA00018477047880100200348D0F84C3213B100F50F701847704788010020094B0A4A87
:20CAC000013800EBC00003EB8000116B036A074883420CBF4FF400134FF480030B4313635C
:20CAE000704700BF88010020003802400060024070B501383C4C3D4D00EBC00C04EB8C0C4D
:20CB00009646DCF820603A4AAE420CBF4FF400154FF48005166B35431563CCF83010CCF84D
:20CB200038303449DCF824308B424FEAC0023ED001F580618B423AD0A1F57A718B4246D000
:20CB400001F580618B4242D0A1F57A718B4240D001F580618B423CD0A1F57A718B4234D0BF
:20CB600001F580618B4230D0A1F57A718B4232D001F580618B422ED0A1F57A718B422CD0D5
:20CB800001F580618B4228D0A1F57A718B4226D001F580618B4222D0A1F57A718B4220D0E1
:20CBA000154D01F580618B4218BF002500E0134D104404EB8003CEF387111D6493F83500D3
:20CBC000BDE87040002265F001BD0D4DF0E70D4DEEE70D4DECE70D4DEAE70D4DE8E70D4D90
:20CBE000E6E7054DE4E700BF880100200060024000380240106002400080002820800010BD
:20CC00000080001800880010008020102080002000880020008020202DE9F04FA04BDFF8F5
:20CC20009C9293F8DE399F4F8FB0CDE90239013BDBB201939C4B0025A3F5DC66DFF880B2BA
:20CC4000DFF880A25B46D3469A464FEA9A23A3F58013522B4CD8334493F898310D2B47D85D
:20CC6000FC56029B012B40F0FA80012C35D14FF000084146204623F0BFFB23F05DFC0378D4
:20CC800013B1542B40F0058108F104081FFA88F8B8F1100FEDD14FF0000E8DB3494600203B
:20CCA0000CE0334493F898310D2B0ED8FB569C420ED00130854201F580711EDD8A6813684B
:20CCC0009B0AA3F58013522BEBD900239C42F0D153799BF805209A42EBD1734B9B454BD0AC
:20CCE0005BF820AF4FEA9A23A3F58013522BB2D9019B012BF1D90024B9E7BEF1000FECD118
:20CD000058461CF067FEC3B2022B9BF805C000F24F83431C5BB203EB43034FEA830E634B2E
:20CD2000634903F5727004E0834200F0418353F82C1F5145F8D11A796245F5D153F80E4082
:20CD4000002CF1D05B4800234268A24203F1010300F08280102B00F12400F5D14FF0FF3321
:20CD6000554A03EBC30302EB830393F83C30002BB3D1039BC3F808B0039B013503F5807377
:20CD8000042D03937FF45AAFDFF83C8108F6981301270193A8F1040ADAF804217B1E9A4244
:20CDA00057DDD8F80C50002D00F0FE822968AE8801F13F4101F57E01B6FA86F6890AC6F152
:20CDC0001F06DAF8F804002840F38280002302E0013383427AD01C0259F804208A42F7D194
:20CDE0004C44C8F80460C8F81840FBB215B1EB710323AB71636CE16C72000320904003438F
:20CE00006364012303FA02F20A43E2649AF8002062B3226DB3401A43226515B12A68A988ED
:20CE20001183D4F8A00099B20122FBF7F1FA2046FBF714FC019A0123013788F81C3088F8FC
:20CE40001D305374092F02F1180308F120080193A2D10FB0BDE8F08FDBB2013B80E7022B10
:20CE60007FF405AF082C3FF402AF36E7226D06F110018B401343236515B12B68AA885A83AE
:20CE80000121B140D4F8A00089B20022FBF7C0FACDE74FF0010E002D7FF400AF1DE700BFF6
:20CEA000F81D0020A038080854A9070860A4070800000140A801002088010020000500106E
:20CEC0000004014054A8070808000010032B68DC0AEB002203020293D2F80435002B00F0A9
:20CEE0005C82C2F8FC140131C9B282F8F91504910130542182F8F815CAF8F8041A685C797E
:20CF0000039218461CF066FDA34AC3B292F8F3290592022B98F810200692864600F2488203
:20CF200000F1010C4FFA8CFC0CEB4C0C9B499C48039A4FEA8C0C002305E00133172B00F02F
:20CF4000378251F82C0F8242F7D10879A042F4D151F80C000028F0D02C2101FB03F30EEB6B
:20CF60004E0E9049DFF87CB203EB8E030B445C46D3F8FC11029B5344C3F81015C3F80C054F
:20CF80000021636898421CD00131102904F12404F7D1854B1A7E42B954221A76049A5A76B8
:20CFA00003E07D4A032382F8F2398049804A814BCAF88419CAF88029CAF88C390FB0BDE8E8
:20CFC000F08F4B1CDBB27849013B03EBC30301EB830393F83C1007910029E6D10298049935
:20CFE00083F83D10C111744C01EB202101EB011104EB8101542483F83C40034653444FF0AD
:20D000008C0C04126D480CFB04F400EB44042868C3F89C153321C3F8E445C3F80005C3F8CC
:20D02000E8C5C3F8A015029B09EB0304644B9A421AD05B4B9A4217D003F580439A4213D0E3
:20D0400003F580639A420FD003F580639A420BD0514B1968059B062B4FEA510109D15948B4
:20D06000594B4FF0380C12E04B4B1968059B062BF5D0072BDFF870C1544B554814BF4FF062
:20D08000710C1846534B04BF63464FF01C0CB1FBF3F3B1FBF0F11046029ACAF808C1524412
:20D0A000013B9BB20139A2F8A415A2F85C350392029AA36502F1540100234944A4F85C30D6
:20D0C000636560F0F5FA039A4349D2F8043503931868028892B242F0800202800023ADF83B
:20D0E00028300388099123F0010302214FF480721B04CDE90C124FF00A0C1B0CCDF82CC024
:20D100000380039B09AA597923F0CCFE039B1879002840F02A81029B0AEB03020023D2F8D6
:20D120000405D2F80CC501680A8892B242F001020A80DBF80420944503F1010300F0118103
:20D14000102B0BF1240BF4D14FF0FF33164ADFF89CC003EBC30302EB8303204A1B6A6345E2
:20D160000CBF4FF400134FF48003D2F830C043EA0C03136343791A480C2B9BBF094A02EB6D
:20D1800043034FF0000CB3F800C7029B5344A3F808C5002333E000BFF81D002060A40708B3
:20D1A0000000014074A2070888010020A15802089D580208A9580208EC2700201C2B0020B9
:20D1C00000040140882A1100A0BB0D001055220044950800D0DD06006000010000380240E9
:20D1E00004090010A801002040771B0000600240914200F0D7800133042B00F0DC8050F8C4
:20D200003320002AF4D1DAF8FC280132CAF8FC280AEBC302DB00C2F80019034467499A883C
:20D2200007984CEA020CA3F804C090222346FFF75FFC20690268002342F010020260C4E9D7
:20D240002533A367C4F88830C4F89C30029B0AEB030B4FF48062DBF810156166E2674FF460
:20D2600000310422C4E9231240212167DBF8A0156167DBF800151831A1664FF48051C4F834
:20D280008010DBF89C25E26603F164014FF480424944C4F8842060F085F8DBF80C05029B89
:20D2A000D0F800E0C4F81CE0D0F814E0C4F820E0D0F804E0C4F824E003F1AC01D0F808E0D9
:20D2C000C4F828E00023D0F80CE0C4F82CE0C4E93733C4F8B830C4F8C030C4F8D030C4F80C
:20D2E000E430DBF81035C4F8AC304FF4403C0423C4E935C34FF48062C4F8C420DBF8E8352A
:20D30000C4F8BC30DBF800351033C4F8B0304FF40063C4F8C830DBF8E435C4F8B4304FF455
:20D3200080434944C4F8CC3060F03CF8DBF80C2511682163516961635168A1639168E163E8
:20D34000D1682164116841F010011160069A88F81020FBB2C8F80460C8F80C50C8F818408E
:20D3600045E5DBB20793013BF0E61CF0EFFE049038B1039B02211A7A1CF054FC049B54220E
:20D38000DA80039B1A68B2F844306FEA43436FEA53439BB2A2F84430BDE6094A022382F837
:20D3A000F23902E6DB0038E74FF0FF36314608E500235B68FFDE00239B88FFDE59840008BD
:20D3C000F81D00200C4B984213D0A3F5806398420FD003F5804398420BD003F580639842AB
:20D3E00007D003F58063984203D0044B186840087047024B1868704700040140F81D002002
:20D40000084B10B5D3F88C3018440C46007E1CF09DFE18B1036882880CB11A8310BD5A8358
:20D42000FCE700BFF02E00200B4B10B5D3F88C3003440446187E1CF089FE58B12E22827164
:20D44000621CC27101211DF0A5F820460021BDE81040D5E710BD00BFF02E00202DE9F04FF8
:20D460008DB00E469DF85840019403930546002800F0CD80DFF8C8C1077900230CF190047F
:20D4800002E0152B00F0C38003EB43010133605CB842F6D161442F6891F9928095F805E00A
:20D4A0005FFA88F3022B00F2B28008F1010C4FFA8CFC0CEB4C0C5E4B4FEA8C0C002105E0A1
:20D4C0000131172903F12C0300F0A18018688742F6D118797045F3D153F80C40002CEFD00A
:20D4E0002C2303FB01F108EB4808524BDFF854B101EB88011944D1F8FC3105939BF82439E1
:20D500000093002B40F088804B4F7B6AA34200F0E182BB6C9C4200F0CB84FB6EA34200F0DC
:20D52000C984D7F89030A34200F0C684D7F8B4309C4200F0C384D7F8D830A34200F0628496
:20D54000D7F8FC30A34200F0BB84D7F820319C4200F0B884D7F84431A34200F0B884D7F86E
